:02000002B0004C
:1040000000400B004C5D0B00000006000C00050298
:084010000401E50C00000000B2
:04401800C4590B007C
:10401C0009480A49884208B505D0094A824202D0AB
:10402C00121A01F0F0FB0748074A0021121A01F09E
:10403C00F8FB014808BD00BF48E60320B85C0B0044
:10404C00B4E60320B4E60320EDE7032070B5074E79
:10405C00074C00F0B5FDA41BA4080025AC4200D110
:10406C0070BD56F8043B98470135F7E7645C0B00CC
:10407C00885C0B0000F060B808B500F081F8BDE872
:10408C00084000F055BD00F0EDBA00F0EBBA00F0BE
:10409C00F1BA0078B0FA80F0400970470123037040
:1040AC007047000030B5044685B001F029F921684D
:1040BC0000F0D5FC1E4B1F491B788DF80030226890
:1040CC0002A83C2300F0DAFE0020029C00F026FA45
:1040DC0020B1637813B900F0A5FAFAE76378BFF35F
:1040EC005B8F651CABB90025039C7CB16368013BFD
:1040FC0063605BB9236820469B689847A368013BC3
:10410C00A3601BB923682046DB689847284605B096
:10411C0030BD002000F002FA20B12B7813B900F06A
:10412C0081FAFAE72378012BDDD1257BDCE700BF90
:10413C00B4E60320D8590B0010B501F0E1F84FF4A8
:10414C00165101F0D1F80B4C01F0DAF80A4900F0E5
:10415C0090FC01F029FB01F09DF9204600F081F85C
:10416C00204600F0CFF801F0CBF8BDE81040034931
:10417C0000F07FBCB8E60320EF590B00F5590B009B
:10418C0030B5254D254889B000F076F82B78DFED59
:10419C00247A73B3234C2368B4EEE70A0133F1EEAF
:1041AC0010FA23601ED52049684600F07AFB1823CC
:1041BC00216891FBF3F1684600F0C9FB1B49684686
:1041CC0000F0B4FB694604A800F08EFB04A8FFF7CE
:1041DC0069FF04A800F01AFB002368462B702360CB
:1041EC0000F014FB40F6C41009B0BDE8304000F0FC
:1041FC0073BCB4EEE70AF1EE10FAF3DB0C4904A839
:10420C0000F04FFB04A8FFF74DFF04A800F0FEFAE6
:10421C0001232B70E6E700BFB5E60320B8E60320C8
:10422C0000009643C0E60320025A0B00275A0B00ED
:10423C00305A0B0008B5064B01221A7001F0B4FA83
:10424C00BDE8084002462321024800F005B800BF33
:10425C00B4E60320B8E603204260112241700270DC
:10426C00704710B50446406801F051F910B9606808
:10427C0001F010F9012010BD70B505464178406879
:10428C0001F03AF969786868022201F032F968683D
:10429C0003685B6998470646686803685B699847DA
:1042AC00044644EA06246868A4B201F02DF907EE2E
:1042BC00904A9FED030AF8EE677A87EE800A70BD8C
:1042CC009A99993F0378232B05D0132B0CBF1820F8
:1042DC00B42000F001BC1820FBE738B504460D46AD
:1042EC004178406801F008F96068036829469B68CA
:1042FC009847606801F008F925702046BDE8384001
:10430C00FFF7E0BF0178FFF7E8BF000008B5024BEC
:10431C001B689B68019308BD6802030008B5024B3B
:10432C001B68DB68019308BD6802030008B5024BEB
:10433C001B685B68019308BD1802030008B5024BAB
:10434C001B685B69019308BD1802030008B5024B9A
:10435C001B685B6C019308BD4802030008B5024B57
:10436C001B685B69019308BD6402030008B5024B2E
:10437C001B68DB68019308BD3C02030008B5024BC7
:10438C001B681B69019308BD3C02030008B5024B76
:10439C001B685B69019308BD3C02030008B5024B26
:1043AC001B689B69019308BD3C02030008B5024BD6
:1043BC001B68DB69019308BD3C02030008B5024B86
:1043CC001B689B6A019308BD3C02030008B5024BB5
:1043DC001B681B6C019308BD3C02030008B5024B23
:1043EC001B68DB68019308BD2802030008B5024B6B
:1043FC001B689B69019308BD2802030008B5024B9A
:10440C001B68DB69019308BD2802030008B5024B49
:10441C001B681B6A019308BD2802030008B5024BF8
:10442C001B685B6A019308BD2802030008B5024BA8
:10443C001B689B6A019308BD2802030008B5024B58
:10444C001B68DB6A019308BD2802030008B5024B08
:10445C001B681B6B019308BD2802030008B5024BB7
:10446C001B685B6B019308BD2802030008B5024B67
:10447C001B681B6C019308BD2802030008B5024B96
:10448C001B681B6D019308BD2802030008B5024B85
:10449C001B681B68019308BD4C02030008B5024B56
:1044AC001B685B68019308BD4C02030008B5024B06
:1044BC001B681B69019308BD4C02030008B5024B35
:1044CC001B685B69019308BD4C02030008B5024BE5
:1044DC001B689B69019308BD4C02030008B5024B95
:1044EC001B68DB69019308BD4C02030008B5024B45
:1044FC001B681B6A019308BD4C02030008B5024BF4
:10450C001B685B68019308BD2002030008B5024BD1
:10451C001B685B69019308BD2002030008B5024BC0
:10452C001B68DB6C019308BD2002030008B5024B2D
:10453C001B685B6D019308BD2002030008B5034B9B
:10454C001B68D3F88830019308BD000020020300DB
:10455C0008B5034B1B68D3F89430019308BD0000D9
:10456C002002030008B5024B1B685B68019308BD71
:10457C004002030008B5024B1B689B68019308BD01
:10458C004002030008B5024B1B68DB68019308BDB1
:10459C004002030008B5024B1B681B69019308BD60
:1045AC004002030008B5024B1B685B69019308BD10
:1045BC004002030008B5024B1B689B69019308BDC0
:1045CC004002030008B5024B1B68DB69019308BD70
:1045DC004002030008B5024B1B681B6A019308BD1F
:1045EC004002030008B5024B1B681B6B019308BD0E
:1045FC004002030008B5024B1B685B6B019308BDBE
:10460C004002030008B5024B1B681B6C019308BDEC
:10461C004002030008B5024B1B685B6C019308BD9C
:10462C004002030008B5024B1B689B68019308BD50
:10463C004402030008B5024B1B685B69019308BD7B
:10464C004402030008B5024B1B681B6A019308BDAA
:10465C004402030008B5024B1B68DB6B019308BDD9
:10466C004402030008B5024B1B681B68019308BD8C
:10467C001C02030008B5024B1B685B68019308BD64
:10468C001C02030008B5024B1B689B68019308BD14
:10469C001C02030008B5024B1B68DB6A019308BDC2
:1046AC001C02030008B5024B1B681B6B019308BD71
:1046BC001C02030008B5024B1B681B6C019308BD60
:1046CC001C02030008B5024B1B685B6C019308BD10
:1046DC001C020300002240681146FFF77BBF00223A
:1046EC0040681146FFF786BF40680022FFF77ABF8B
:1046FC004068002281F00101FFF764BF002340688D
:10470C001A461946FFF756BF002340681A46194649
:10471C00FFF748BF002240681146FFF73BBF00225D
:10472C0040681146FFF726BF406800220221FFF7C0
:10473C0029BF002340681A46FFF714BF024B03221F
:10474C005A60024A1A607047C4E60320485A0B00AC
:10475C00054B02221A60054B054A9A600020C3E9FA
:10476C000000FFF7CBBE00BFD8E60320CCE6032049
:10477C000000FFFF10B5044601F0AFF80138231814
:10478C002046834206D90278197800F8011B03F8F9
:10479C000129F6E710BD70B50C46911E22291DD8D3
:1047AC00254630B9234430229D4210D205F8012B06
:1047BC00FAE7B0FBF2F602FB1600C1B2092894BF6F
:1047CC0030315731C9B205F8011B3046E9E70023F7
:1047DC0020462B70FFF7CEFF204670BD0020FCE773
:1047EC0038B5031E0C4615460EDAB3F1004F4FF0E8
:1047FC002D0214BF5842184601230A702A46194448
:10480C00FFF7C9FF204638BD0123F9E710B5044670
:10481C000068FFF72FFF204610BD10B50446006856
:10482C0008B1FFF727FF0023C4E90133236010BD53
:10483C0038B504460D4600680131FFF723FF10B16F
:10484C00C4E90005012038BD10B50368044623B146
:10485C0043688B4201D3012010BD2046FFF7E8FFCF
:10486C000028F9D0A368002BF5D122681370F2E769
:10487C0037B50D46114601920446FFF7E5FF019A44
:10488C0028B92046FFF7C9FF204603B030BDA2600F
:10489C002946206800F0B7FF2268A3680021D15494
:1048AC00F2E7002313B5C0E90033044683600373B9
:1048BC0041B10846019101F010F8019902462046D9
:1048CC00FFF7D6FF204602B010BD884210B5044653
:1048DC0005D00B682BB18A681946FFF7C9FF204633
:1048EC0010BDFFF79AFFFAE710B500230446C0E9A4
:1048FC00003383600373FFF7E8FF204610BD70B5EB
:10490C0005460E4609B9002070BD6AB1846814448E
:10491C002146FFF799FF0028F5D02868AB6831468F
:10492C00184400F0B5FFAC600120EDE713B5044668
:10493C00084651B1019100F0D0FF01990246204682
:10494C0002B0BDE81040FFF7DABF02B010BD13B5DE
:10495C000A22044608466946FFF742FF684600F003
:10496C00BCFF694602462046FFF7C9FF02B010BDE6
:10497C0010B58368044613B10322014698472046BC
:10498C0010BD10B54368013B0446436063B903682E
:10499C009B689847A368013BA3602BB9236820460A
:1049AC00DB68BDE81040184710BD10B50446006820
:1049BC0008B1FFF7E6FF204610BD13B50B460246C3
:1049CC00D0E900016C4684E8030093E8030082E818
:1049DC00030094E8030083E8030002B010BD00005C
:1049EC00024800230360FFF7B1BC00BFDCE60320E4
:1049FC00F8B506460D468F180024BD420CD033681E
:104A0C0015F8011B9B6830469847031E01DB1C44BC
:104A1C00F3E7002C08BF1C462046F8BD13B504462E
:104A2C00084659B1019100F058FF23680199DB68E1
:104A3C000246204602B0BDE81040184702B010BD37
:104A4C0003689B68184738B50D210546FFF7F8FF3A
:104A5C000A2104462846FFF7F3FF204438BD38B539
:104A6C000546FFF7DBFF04462846FFF7ECFF204422
:104A7C0038BDFFF7F4BF30B58BB00023012A8DF899
:104A8C00243098BF0A2209AC0D46B1FBF2F101FBB0
:104A9C00125303F0FF03092B94BF30333733DBB2CF
:104AAC00AA4204F8013DEFD92146FFF7B7FF0BB03E
:104ABC0030BD0000014B024A1A607047E0E603204B
:104ACC007C5A0B00024B1A68024B1A60704700BFED
:104ADC0048E60320E4E603200021FFF717BD0000A1
:104AEC00014B00229A607047E8E60320014B1860E6
:104AFC00704700BF4CE6032008B50B4B43B100F0E8
:104B0C00FFFB03681B699847002801DDAFF30080A9
:104B1C00064B43B100F00CFE03681B699847002854
:104B2C0001DDAFF3008008BD0000000000000000B4
:104B3C0008B5FFF7E1FFFFF701FC014B186008BD5A
:104B4C0040E703200548064A064908B5121A00F04A
:104B5C005AFE054B054A1A6008BD00BF00F403203D
:104B6C0004F40320B45C0B0000F403201E1C279AF1
:104B7C0007B5002300931A466FF07701FFF7E8FCA6
:104B8C0003B05DF804FB000007B543880A2B08D07E
:104B9C00502B0BD1094B1B684BB103B05DF804EBE8
:104BAC001847FFF7E5FF03B05DF804FB0023009303
:104BBC001A466FF07701FFF7CBFCF4E7FCE6032015
:104BCC0010B512480021FFF77DFD114B1A68114BEF
:104BDC009A42114B0CBF012200221A7001D0FFF730
:104BEC00B1FFFFF7A3FB044600F024FE0B4B13B1FF
:104BFC002046AFF3008000210848FFF72BFDBDE8ED
:104C0C00104007480021FFF799BC00BFF94A0B0080
:104C1C0000F403201E1C279AF8E603200000000075
:104C2C00954B0B0070470020704710B510210446BF
:104C3C00FFF72DFA204610BD08B5FFF7F6FF08BDAB
:104C4C0030B500224FF69C74026084808D888C8075
:104C5C000C68858004600A6030BD10B5044600689D
:104C6C00FFF708FD204610BD38B5C468F4B12378B1
:104C7C00022B03D104F10C00FFF7EFFF656835B18F
:104C8C002846FFF775FE10212846FFF700FAA568A5
:104C9C0035B12846FFF76CFE10212846FFF7F7F9CF
:104CAC0020461421BDE83840FFF7F1B938BD0B6838
:104CBC0003604B68436013B15A6801325A60704705
:104CCC0037B5044668460D46FFF7F1FF009B019A85
:104CDC0023606260002301A801930093FFF765FE37
:104CEC0035B1281DFFF761FE08212846FFF7CFF9E3
:104CFC00204603B030BD826810B50AB900F07AFDC9
:104D0C00BDE81040C368184708B5006800F11001F1
:104D1C00FFF7F1FF08BD826810B50AB900F06AFD13
:104D2C00BDE81040C368184708B5006800F11001D1
:104D3C00FFF7F1FF08BD000038B5002304460360FF
:104D4C0010200D46FFF79FF928B10123C0E901336C
:104D5C00024B0360C5602060204638BDA45A0B008E
:104D6C0038B5002383608B6804460D462BB10222B4
:104D7C009847EB68E360AB68A360204638BD000041
:104D8C00F0B589B004686846FFF75AFF4FF002038C
:104D9C00D4E84F2F002A03D1C4E8413F0029F7D1B2
:104DAC0025D104F10C0569462846FFF749FFBFF3EE
:104DBC005B8F01236370002004F10803BFF35B8F4A
:104DCC0053E8006F43E80002002AF9D1BFF35B8F70
:104DDC006EB1FFF7A3FB78B129463046FFF78BFF86
:104DEC003046FFF7C5FD10213046FFF750F96846F5
:104DFC00FFF733FF09B0F0BD314602A8FFF7B0FF53
:104E0C00E068B4F9105008B100F04AFD069010208B
:104E1C00ADF81C50FFF737F90546E8B1002787605D
:104E2C001820FFF730F9044688B10146876002A8C4
:104E3C00FFF7C3FD049BA268A360059B049206A91F
:104E4C00E268E36004F110000592FFF7F9FE084BED
:104E5C00EB60084B2C60AB6006A8FFF7FEFE02A8C7
:104E6C00FFF786FD002229460348FFF75FFBB7E7F3
:104E7C00154D0B00994F0B00FD530B002DE9F04F16
:104E8C008BB005469DF850A00F4690469946FFF70B
:104E9C00D1FB07AE834638BB4FF62E73059005A9A0
:104EAC003046ADF81830FFF7CBFE1420FFF7EBF8C7
:104EBC00044648B1022303700123C0E901BB4370CF
:104ECC0031460C30FFF7BCFE2846214640F8044B17
:104EDC00FFF732FF3046FFF7C0FE05A8FFF7BDFE17
:104EEC0028460BB0BDE8F08F0C2300241420CDE92C
:104EFC0008440793FFF7C7F8014618B1C0E901440D
:104F0C000470447004A80391FFF716FF1E4B08931E
:104F1C000820FFF7B8F8044610B103A9FFF7C7FE45
:104F2C0000965FFA8AF34A46414638460994FFF7E1
:104F3C0089FBB8B9039B5B7803F0FF0293B94FF67A
:104F4C009C7305A903A80592ADF81830FFF718FF5C
:104F5C0005A8FFF782FE05A80999FFF7B1FE06A880
:104F6C00FFF723FD03A905A8FFF7A1FE059B069AF1
:104F7C002B606A60002306A806930593FFF715FDC6
:104F8C0004A8FFF712FDABE715500B00012AF8B58A
:104F9C00054603D10B6803600020F8BD022A10D02F
:104FAC00032AF9D10468002CF6D004F11000FFF7A5
:104FBC0054FE2046FFF7DCFC18212046FFF767F86B
:104FCC00EAE718200E68FFF75EF8044650B1314648
:104FDC00FFF7C6FE3069B6F9147008B100F060FC3A
:104FEC002061A7822C60D7E738B5002383608B68DB
:104FFC0004460D462BB102229847EB68E360AB6880
:10500C00A360204638BD0000F0B589B004460D46BB
:10501C0001A81146FFF754FEA4B124B21DB12846D5
:10502C0000F03EFC054601A803A90395ADF810401D
:10503C00FFF7A6FE03A8FFF710FE02A8FFF7B5FCCA
:10504C0009B0F0BD019D0123D5E84F2F002A03D1F3
:10505C00C5E8413F0029F7D1EFD12B73BFF35B8F2C
:10506C006B702B1DBFF35B8F53E8006F43E800425E
:10507C00002AF9D1BFF35B8F002EDED02046FFF75C
:10508C004DFA074660B105F10C013046FFF743FEBF
:10509C003046FFF76DFC10213046FEF7F8FFCCE7E9
:1050AC00314603A8FFF7A0FF2B7B8DF81C30102096
:1050BC00FEF7E9FF0546D0B187601420FEF7E3FF49
:1050CC00044678B18760014603A8FFF776FC059B80
:1050DC00A268A360069B0592E268E3609DF81C3011
:1050EC0006922374064BEB60064B2C60AB6003A856
:1050FC00FFF73EFC002229460348FFF717FAC7E7E3
:10510C00354D0B0019510B00FD530B00012A70B5E6
:10511C00044603D10B680360002070BD022A0CD03A
:10512C00032AF9D10468002CF6D02046FFF720FCA6
:10513C0014212046FEF7ABFFEEE714200E68FEF7B5
:10514C00A2FF054620B13146FFF74EFF337C2B748E
:10515C002560E1E7704710B518210446FEF797FF6C
:10516C00204610BDF0B5037D062B8DB00E4600F128
:10517C0004074FF0000412D000F1080515F8011DCA
:10518C000A223046FFF777FCAF42044419D0002CBA
:10519C00F4D02E213046FFF753FC0444EEE72F23C6
:1051AC006A4639460A208DF80040FFF7D7F8684662
:1051BC0000F093FB33680246DB686946304698473B
:1051CC00044620460DB0F0BD10B5054B0446112227
:1051DC0040F8043B002100F024FB204610BD00BF2A
:1051EC00C05A0B000346074A10B543F8042B01F1D3
:1051FC00100251F8044B43F8044B9142F9D10A7850
:10520C001A7010BDC05A0B0010B59DF8084044EA46
:10521C00032343EA024242EA01610423416003751D
:10522C0010BD000007B5064B0360CB7800938B785C
:10523C004A780978FFF7E8FF03B05DF804FB00BF7C
:10524C00C05A0B00417470477047704708B5002175
:10525C00007CFFF73BF940EAE07008BD08B501217E
:10526C00007CFFF733F940EAE07008BD08B5007C1C
:10527C00FFF724F920EAE07008BD08B5007CFFF7C1
:10528C0015F920EAE07008BD13B50446007C0191C5
:10529C00FFF714F90028019901DC607C20B1207C17
:1052AC00FFF71CF920EAE07002B010BD007CFFF79C
:1052BC001DB910B514210446FEF7E9FE204610BDB9
:1052CC0010B54FF47A73044608460021C4E9011363
:1052DC00044B23600123207463741146FFF7D6F846
:1052EC00204610BDD45A0B00007C0022FFF7D6B824
:1052FC0010B514220446002100F093FA204610BD8C
:10530C0010B50F4C88B003A8FFF7F2FF2178BFF35C
:10531C005B8F11F001010FD120460191FEF7B9FE10
:10532C00019948B103AA0748FFF7CAFF2046FEF7C8
:10533C00B5FE054800F061FA024808B010BD00BF88
:10534C0000E7032004E7032055520B00704741741B
:10535C00704708B5007CFFF731F820EAE07008BD13
:10536C0008B5007CFFF70AF820EAE07008BD08B524
:10537C00007CFFF713F840EAE07008BD08B5007C2C
:10538C00FFF704F840EAE07008BD007CFFF70EB8A8
:10539C0037B5457C04462DB1207C03B0BDE83040C8
:1053AC00FEF7E4BF007C0191FFF708F80028019993
:1053BC00F2DC284603B030BD10B514210446FEF7CC
:1053CC0066FE204610BD000010B54FF47A730446FB
:1053DC00084611460022C4E90123044B2360012333
:1053EC0020746374FEF7F2FF204610BD045B0B00C3
:1053FC0010B5836804460BB900F0FCF9C3689847F4
:10540C00A3681BB103222146204698472046102151
:10541C00BDE81040FEF73BBE7047F8B50646154692
:10542C000C468F18BC4206D0336814F8011B9B68DD
:10543C0030469847F6E72846F8BD007C0022FEF778
:10544C00E5BF007C0021FEF7E9BF007C0021FEF7E0
:10545C00EDBF007C0021FEF7F1BF007C0021FEF7C0
:10546C00F5BF10B514210446FEF711FE204610BD01
:10547C0010B54FF47A73044608460021C4E90113B1
:10548C00034B236020741146FEF7F0FF204610BD3D
:10549C00345B0B000023007C1A461946FEF79EBFB6
:1054AC007FB500221423CDE90122ADF804300B782E
:1054BC008DF808304B680393CB680493007C0B7A0F
:1054CC00059301A9FEF7DAFF07B05DF804FB1FB5E1
:1054DC00003B8DF800104FF06401039118BF0123BD
:1054EC00694601928DF80830FFF7DAFF05B05DF8D8
:1054FC0004FB0123FFF7EBBF007C0022FEF776BF15
:10550C00007C0022FEF77ABF0121FFF7F9BF007C77
:10551C000021FEF7A3BF002240681146FFF73AB8FE
:10552C00002240681146FFF755B80022406811462A
:10553C00FFF760B840680022FFF754B840680022BB
:10554C0081F00101FFF73EB8002340681A46194666
:10555C00FFF730B8002340681A461946FFF722B807
:10556C00002240681146FFF705B84068002202216E
:10557C00FFF708B8002340681A46FEF7F3BF000097
:10558C00024B04225A60024A1A60704718E7032043
:10559C005C5B0B00002340681A46FEF7E3BF4068D3
:1055AC0000220221FEF7EEBF002240681146FEF7F2
:1055BC00E1BF002240681146FEF7ECBF00234068B3
:1055CC001A461946FEF7EEBF002340681A461946E4
:1055DC00FEF7F0BF40680021FFF714B840680021C7
:1055EC00FFF718B84068002281F00101FEF7EABF0E
:1055FC0040680022FEF7F6BF002240681146FEF715
:10560C00F9BF002240681146FEF7E4BF2DE9F043D4
:10561C0095B014460D460746FFF7D6FD00211C2217
:10562C000DA8009100F0FDF840230C9320466B462A
:10563C000CAA0021FEF772FE044600284BD102464C
:10564C0001216868FEF7A6FF0221804622466868A1
:10565C00FEF7A0FF009E81462146002E3BD000297C
:10566C0039D17368022B03D00A2B11D0F669F4E7F9
:10567C00B8F1000FFAD0716906A8043107ADFFF735
:10568C00D1FD0FCD3C1D0FC42B6823704146EDE7B7
:10569C00B9F1000FEAD07469102201A800F0C1F82A
:1056AC0006238DF8143001AD04F108031834186882
:1056BC0059682A4603C20833A3421546F7D101A9FB
:1056CC0006A807ADFFF78EFD0FCD3C1D0FC42B6850
:1056DC0023704946CAE70098FEF718FE384615B005
:1056EC00BDE8F083024B034A1A6000225A607047EF
:1056FC0020E70320985B0B007047000038B5044688
:10570C0014252A46002100F08CF8258040250749F5
:10571C0025812846258200F06BF8044960602846F4
:10572C0000F066F8E060204638BD00BFCC5B0B0093
:10573C0030B50E4D2978BFF35B8F11F0010487B0A3
:10574C0011D12846FEF7A5FC68B101A8FFF7D6FFDA
:10575C0001AA21460648FFF737FE2846FEF79EFCB5
:10576C00044800F04AF8024807B030BD28E703208F
:10577C002CE7032005570B007047000038B5202597
:10578C00142304460360856005610649284600F031
:10579C002FF804496060284600F02AF8E0602046A3
:1057AC0038BD00BFCC5B0B0030B50E4D2978BFF374
:1057BC005B8F11F0010487B011D12846FEF769FC0C
:1057CC0068B101A8FFF7DAFF01AA21460648FFF7E6
:1057DC004FFE2846FEF762FC044800F00EF8024823
:1057EC0007B030BD44E7032048E7032085570B0082
:1057FC00FEF74BBC08B5FEF74DFF002301461A46D9
:10580C00184600F073B80A44914200F1FF3300D1FE
:10581C00704710B511F8014B03F8014F9142F9D1C3
:10582C0010BD02440346934200D1704703F8011B9C
:10583C00F9E7000038B5104B1D68AB6B0446B3B9E3
:10584C001820FEF70FFF0246A86320B90B4B0C483B
:10585C004221FEF72FFF0B490B4BC0E900130B4BFA
:10586C0083600B23838100210120C2E90401AB6B0F
:10587C0000221C615A6138BD4CE60320CD5B0B0045
:10588C00E45B0B000E33CDAB34126DE6ECDE0500A1
:10589C00034611F8012B03F8012B002AF9D17047AC
:1058AC00024B0146186800F003B800BF4CE6032019
:1058BC0037B5044608460D4600F00FF8421C114659
:1058CC0020460192FEF7EEFE044618B1019A2946D5
:1058DC00FFF799FF204603B030BD034613F8012BA8
:1058EC00002AFBD1181A0138704700002DE9F84343
:1058FC00DFF8B8800646D8F800001F460D469146E2
:10590C0000F056F8254B1C6834B9254C1C60254B0F
:10591C0013B11B68C4F8883063681F2B07DDD8F8F7
:10592C00000000F047F84FF0FF30BDE8F8834EB3AD
:10593C00D4F8880088B91C4B23B9D8F8000000F0C3
:10594C0038F8F0E74FF48470FEF78CFE0028F4D0A2
:10595C000023C0E94033C4F88800636840F8239002
:10596C0001229A4000EB8301D0F800311343C0F8B8
:10597C000031022EC1F8807002BFD0F804311343FD
:10598C00C0F804316368D8F800005A1C0233626016
:10599C0044F8235000F00EF80020C6E7E8E7032097
:1059AC005CE703200000000071460B00B0E603200A
:1059BC0070477047704700001D400B0059400B00AA
:1059CC0081400B0085400B00000000004D426C61D3
:1059DC0073686B694172676F6E5F53756E6C696744
:1059EC006874005265616479004248313735302063
:1059FC005365747570007475726E6564207368619C
:105A0C0064792E2049742077617320696E20746844
:105A1C00652073756E20666F722000206D696E753F
:105A2C00746573007475726E65642073756E6E792F
:105A3C000000000000000000000000003F470B00C9
:105A4C0035470B002B470B0021470B0015470B006C
:105A5C0009470B00E1550B00E9550B00FD460B0007
:105A6C00F5460B00EB460B00E1460B0019560B00FC
:105A7C006170700025592D256D2D25645425483AEB
:105A8C00254D3A2553257A0061736374696D650061
:105A9C000000000000000000314C0B00374C0B00E4
:105AAC00754C0B00454C0B00334C0B0000000000F8
:105ABC000000000071510B0061510B0063510B0091
:105ACC00000000000000000057520B00BF520B00FA
:105ADC0095520B00FD490B0087520B0059520B00DD
:105AEC0069520B00B9520B0079520B0051520B004A
:105AFC00000000000000000059530B00C5530B00C0
:105B0C009D530B00FD490B006D530B0089530B008B
:105B1C007B530B0097530B005B530B005F530B0035
:105B2C00000000000000000025540B006F540B0017
:105B3C0047540B0027540B004F540B0057540B00C9
:105B4C005F540B0067540B000000000000000000C5
:105B5C0081550B0077550B006D550B0023550B0031
:105B6C0061550B0055550B00E1550B00E9550B0029
:105B7C0049550B0041550B0037550B002D550B00AB
:105B8C0019560B000000000000000000A1550B008E
:105B9C00AB550B00B5550B00BF550B00C9550B0091
:105BAC00D5550B00E1550B00E9550B00F1550B00D9
:105BBC00FD550B0005560B000F560B0019560B002C
:105BCC00005245454E54206D616C6C6F63207375AB
:105BDC0063636565646564002F6D6E742F776F72F7
:105BEC006B73706163652F776F726B737061636534
:105BFC002F4743432D31302D706970656C696E658C
:105C0C002F6A656E6B696E732D4743432D31302DB2
:105C1C00706970656C696E652D34385F3230323066
:105C2C00313132345F313630363138303634312F11
:105C3C007372632F6E65776C69622F6E65776C6912
:105C4C00622F6C6962632F7374646C69622F72616A
:105C5C006E642E630000000041420B0049470B00AC
:105C6C005D470B00ED490B00C14A0B00D14A0B00FC
:105C7C00ED4A0B008D550B00F1560B000000000097
:045C8C000000000014
:105C9000040000001400000003000000474E5500FF
:105CA000121B009C91BA5CBAA7CDBB81708BF0D956
:045CB000AEBA76D83A
:045CB40000000000EC
:105CB800945A0B0050E6032000000000000000008A
:105CC80000000000000000000000000000000000CC
:105CD80000000000000000000000000000000000BC
:105CE80000000000000000000000000000000000AC
:105CF800000000000000000000000000000000009C
:105D0800000000000000000000000000000000008B
:0C5D18000000000000000000ECE7032089
:105D2400FFFFFFFF00000102030405060708090A3C
:105D34000B0C0D0E0F101112131415161718191A37
:085D44001B1C1D1E1F2028007E
:045D4C00785634123F
:04000003B000401CED
:00000001FF
